:020000040000FA
:0400000037EF00F0E6
:020004000000FA
:040008000EEF00F007
:080018002CEF00F081A013ECB5
:1000200000F0F292110061A118EF00F022EF00F051
:100030008392839681A280EC00F081A49AEC00F078
:10004000612B12008382838681A280EC00F081A460
:100050009AEC00F0616B1200006ED8CF01F0E0CF97
:1000600002F002C0E0FF005001C0D8FF1000720E85
:10007000D36E816A826A836AF80E7F6A070E936E76
:10008000F00E946E000E956E800ED06E900EF26E95
:10009000000EF16E070ED56E82A654EF00F082A01E
:1000A00054EF00F05BEF00F0838A839881B264EF35
:1000B00000F05FEF00F08388839A5FEF00F081B477
:1000C00072EF00F04CEF00F0839280EC00F081B210
:1000D00067EF00F0822A6DEF00F0838280EC00F081
:1000E0004CEF00F083969AEC00F081B475EF00F0CD
:1000F00082067BEF00F083869AEC00F04CEF00F074
:10010000180E606FD58E8380FE0ED76E780ED66E79
:10011000F2A488EF00F0F2948390FE0ED76E780E72
:10012000D66EF2A491EF00F0F294602F83EF00F00E
:10013000D59E1200180E606FD58E8384FE0ED76E8A
:10014000780ED66EF2A4A2EF00F0F2948394FE0E25
:10015000D76E780ED66EF2A4ABEF00F0F294602F5B
:080160009DEF00F0D59E120096
:020000040030CA
:0100010008F6
:0100020019E4
:0100030000FC
:010005008971
:010006008079
:010008000FE8
:01000900C036
:01000A000FE6
:01000B00E014
:01000C000FE4
:01000D0040B2
:00000001FF
